:020000040800F2
:100000006045002061350008990300089B03000843
:100010009D0300089F030008A103000800000000E2
:10002000000000000000000000000000A303000822
:10003000A503000800000000A7030008A9030008AA
:100040007B3500087B3500087B3500087B350008D0
:100050007B3500087B3500087B3500087B350008C0
:100060007B3500087B3500087B3500087B350008B0
:100070007B3500087B3500087B3500087B350008A0
:100080007B3500087B3500087B3500087B35000890
:100090007B3500087B3500087B3500087B35000880
:1000A0007B3500087B3500087B3500087B35000870
:1000B0007B3500087B350008373400087B350008A5
:1000C0007B3500087B3500087B3500087B35000850
:1000D0007B350008EF330008FD3400087B3500084D
:1000E0007B3500087B3500087B3500087B35000830
:1000F0007B3500087B3500087B3500087B35000820
:100100007B3500087B3500087B3500087B3500080F
:100110007B3500087B3500087B3500087B350008FF
:100120007B3500087B3500087B3500087B350008EF
:10013000DFF80CD004F0D4FF004800474501000868
:10014000604500200EB503F061F84FF4A06003F0A5
:100150003DFE4FF4E134204603F083F9204603F0DE
:10016000D8F802F002F802F083FF00244FF48C73F9
:10017000F02221462046009402F090FA10254FF418
:10018000FC66CDE9004533465DA21E2100200294A5
:1001900002F021FECDE9004533465DA21E218220FA
:1001A000029402F018FECDE90045334659A24621DB
:1001B0000020029402F00FFECDE90045334658A21C
:1001C0005F210020029402F006FE009604230A221A
:1001D0005F216420CDE9014502F021FECDE9004513
:1001E000334653A25F216420029402F0F4FDCDE96E
:1001F0000045334650A25F218720029402F034FC70
:10020000CDE9004533464DA296210020029402F02C
:10021000E2FD0C27CDE9004733464CA2962182200F
:10022000029402F0D8FDDFF8308110231A469121A4
:10023000C820CDF8008002F072FECDE900473346B9
:1002400046A2A5218220029402F0C5FD10231A4681
:10025000A221C820CDF8008002F061FECDE9004562
:10026000334641A2B4211E20029402F0B4FD822341
:10027000F02219460020009602F03AFAD723F02225
:1002800019460020009602F033FACDE900453346C6
:100290003AA2DC210A20029402F09DFDCDE900473C
:1002A00033463AA24FF487719620029402F093FDF0
:1002B000CDE90045334616A246216420029402F09F
:1002C0008AFD642002F0D0FF02F069F8314C2078FA
:1002D000012814D1A8F5007510231A469121C820D1
:1002E000009502F01CFE02F0B4F82078022806D136
:1002F00010231A46A221C820009502F010FEFEE746
:100300005468655F576561746865725F6F663A002F
:100310002D2D2D00576561746865723A000000004C
:1003200054656D70657261747572653A0000000005
:100330002D2D2D2000000000A1E6000053796574EA
:10034000656D5F5374617475733A00004C6F63613F
:1003500074696F6E00000000886900085765617459
:100360006865725F496E66004C43445F496E69740C
:100370005F46696E6973686564000000557064616A
:1003800074655F74696D653A000000005665723AE5
:10039000302E3600210000207047FEE7FEE7FEE722
:1003A000FEE7704770477047704700000CB50021AA
:1003B0004B4801910091026842F4803202604FF490
:1003C000A063026802F400320092019A521C01926A
:1003D000009A12B9019A9A42F3D10268920333D576
:1003E000012100913F490A6842F010020A600A6840
:1003F00022F003020A600A6842F002020A604168C1
:10040000416041684160416841F4806141604168F8
:1004100021F47C114160416841F4E81141600168B8
:1004200041F08071016001688901FCD5416821F0CB
:1004300003014160416841F0020141604168C1F33C
:1004400081010229FAD10CBD00910CBD244810B5E0
:10045000016841F0010101604168234A1140416097
:100460000168224A11400160016821F48021016085
:10047000416821F4FE0141604FF41F018160FFF7E4
:1004800095FF1B494FF00060086010BD144910B57E
:100490004868184A10F00C03174803D0042B01D009
:1004A000082B0AD002604968134AC1F30311121DD8
:1004B000515C0268CA40026010BD4A684B6802F491
:1004C00070124FF0020413F4803F04EB924202D00A
:1004D0004B689B0301D5094B00E0064B5A43E1E70B
:1004E00000100240002002400000FFF8FFFFF6FE6F
:1004F00008ED00E000127A000000002000093D0035
:10050000F9488068704770B505000C4601D00CB101
:1005100008E009B1012070BD002070BD0028FCD0AA
:10052000641C6D1C287804F023FA0646207804F039
:100530001FFA86422878F1D004F01AFA054620788E
:1005400004F016FA281A70BD10B501F020FE411C07
:1005500004D0E64989680978084410BD002010BD20
:10056000002805D0E14989680978401A01F03CBEAD
:100570007047DD4910B1026832B903E0DC48086019
:10058000DC4806E0AFF23F020A60406808B9AFF20B
:100590002F004860704770B50446D34E19E0A0891B
:1005A0002568C0050AD4A06820B1FFF7F4FFA08930
:1005B000C00503D4206908B171688847A089800507
:1005C00003D4206A08B1716888477168204688475B
:1005D0002C46002CE3D170BD2DE9F34F002583B0EC
:1005E0000C46C5490120CDE90051029020782E46E5
:1005F0002F46A846A9462D2804D10020BF49641CD7
:10060000CDE900012078302800D1641C20783138F1
:10061000082816D814F8010B303804F065FB824620
:100620008B460022B64B2846314604F0EBFA524680
:100630005B4604F040FA054620780E46303809281B
:10064000E8D920782E2824D16078302841D3392861
:100650003FD8641C14F8010B303804F045FB824687
:100660008B460022A64B2846314604F0CBFA524670
:100670005B4604F020FA05460E4600229E4B3846A3
:10068000414604F0B9FA07462078884630380928F0
:10069000E0D92078652801D045281AD114F8010F37
:1006A0002B2802D02D2810D000E0641C6FF02F0101
:1006B0002078A0F13002092A0BD809EB890201EB5E
:1006C000420200EB0209641CF2E74FF0FF30029097
:1006D000EBE7029909FB01F004F006FB3A464346BA
:1006E00004F0E9F902460B460020854905F03AFB83
:1006F00007468846DDE900012A46334604F082FABF
:100700003A46434604F07EFA039AC2E9060104F031
:1007100010FB0399486103980321C16005B020468E
:10072000BDE8F08F2DE9F041040009D023683BB10A
:10073000A26850186168814204DB9818BDE8F08116
:100740000020FBE7401E40EA600040EAA00040EACB
:100750002010654F40EA202040EA2046761C396888
:100760003046884705000BD0D4E9001204F006F9A2
:10077000796820688847C4E90056A0682844DDE706
:10078000796820688847002060602060D8E72DE9FC
:10079000F04707460E46D7E906450022DFF84881B4
:1007A000DFF8609113462046294604F0F5FA0FD190
:1007B00026B102213046FFF7B5FF03E0D8F800105C
:1007C00002208847060071D04FA0008830806DE07D
:1007D000786904F089FA22462B4604F00DFA21F0DC
:1007E000004100224B4604F0D7FA1ED8474A484B36
:1007F0002046294604F0D0FA17D80022454B20465F
:10080000294604F0E1FA10D826B115213046FFF749
:1008100089FF03E0D8F8001015208847060045D06E
:100820003DA17A6904F0C0FC40E026B14021304689
:10083000FFF778FF03E0D8F8001040208847060053
:1008400034D02046294605F0C1F922462B4604F053
:10085000D3F921F0004100224B4604F09DFA0BD859
:10086000204625F000412D4A2D4B04F095FA03D285
:1008700022462B462BA116E025F0004120460F46CC
:100880002A4A2B4B04F088FA06D320463946002228
:10089000284B04F099FA03D222462B4626A102E007
:1008A00022462B4625A1304604F07EFC3046BDE8AA
:1008B000F0870178A1F13002092A01D811460AE037
:1008C000A1F14102052A01D8373904E0A1F1610202
:1008D000052A6BD857390A0110F8011FA1F130031E
:1008E000092B2DD8303A36E01400002024000020D7
:1008F000F95C0008A95C00080000F03F0000F0BFB0
:10090000000024400000B03C300000000000C0FFA8
:10091000FFFFDF410000E0C12564000044F3C2E4B2
:10092000E4E9634C252E3066000000008DEDB5A093
:10093000F7C6B03E65CDCD412565000025660000B7
:10094000A1F14103052B01D8373A04E0A1F161037D
:10095000052B2BD8573A11440A0110F8011FA1F1B9
:100960003003092B01D8303A0AE0A1F14103052BED
:1009700001D8373A04E0A1F16103052B16D8573AA4
:10098000114440780901A0F13002092A01D8303918
:1009900004E0A0F14102052A02D837390844704723
:1009A000A0F16102052A01D85739F7E70020704706
:1009B0002DE9F0470C460646481C22780021F84BEA
:1009C000222A06D000209C6071E7401C5C2A00D1DE
:1009D000401C0278222A02D00AB1491CF5D1481CD9
:1009E00019688847051EEFD0601C2C464FF48067BD
:1009F00088E05C2903D004F8011B401C82E000F170
:100A000001084078722814D006DC622809D06628D4
:100A100009D06E2808D10AE074280CD0752803D1BB
:100A20000BE0082000E00C2004F8010B68E00A202D
:100A3000FAE70D20F8E70920F6E708F10100FFF7D3
:100A400038FF8146A0F55C4008F10408B84257D34E
:100A5000B9F1000F54D0A9F55840B84217D298F810
:100A600001005C284CD198F80200752848D108F1A3
:100A70000300FFF71EFFA0F55C4108F10608B9422C
:100A80003ED2C9F3090161F39F2000F580390420AB
:100A9000B9F1800F02D20120641C2AE0B9F5006F81
:100AA00002D20220A41C06E0B9F5803F02D2032046
:100AB000E41C0EE0241D022813D0032809D00428CA
:100AC0001DD109F0BF0141F0800104F8011D4FEA7A
:100AD000991909F0BF0141F0800104F8011D4FEAA6
:100AE000991909F0BF0141F0800104F8011D4FEA96
:100AF0009919AC49095C41EA090104F8011D044453
:100B000008F101000178222902D000297FF471AF99
:100B1000002121700178222900D1401C0421C6E95E
:100B20000315C4E62DE9F05F0F460025044629466B
:100B300009E0531E1F2B14D3222A12D05C2A10D096
:100B400000221143401C0278002AF2D1DFF85092B3
:100B500093464FF0220AD9F8002021B1E4B126468D
:100B600036E00122EDE7061B27B1F11C3846FFF7FE
:100B7000D9FD01E0F01C9047050042D080F800A0AC
:100B8000681CD0460746214603F04BFFB91907F809
:100B9000068081F801B060E027B103213846FFF7F5
:100BA000C1FD01E00320904704002AD07EA103F09C
:100BB00038FF2046BDE8F09F41467CA003F020FFAF
:100BC00008B16D1C03E0B8F1200F00D26D1D761C3A
:100BD0003078B0F1000801D06D1CEDD127B1E91CCF
:100BE0003846FFF79FFD03E0D9F80010E81C88475E
:100BF000050006D080F800A05646681C4FF05C083F
:100C000025E00020D6E71F2907D9222905D05C2935
:100C100003D000F8011B641C19E000F8018B14F8E4
:100C2000012B414607460C2A20D006DC082A1BD09F
:100C3000092A21D00A2A06D11AE00D2A1AD0222A1E
:100C40000FD05C2A0BD05BA104F0AEFA781D21789E
:100C50000029D8D1067080F801B02846AAE739707B
:100C600000E03E70401CF2E7622006E0662004E0EF
:100C70006E2002E0722000E074203870781CE6E7F5
:100C80002DE9F04105460878454E7B2801D0B1603A
:100C900032E00620E860481C00F07CFE0746007841
:100CA0007D2813D000F059FE041EA8600FD03846EE
:100CB00000F070FE01462046FFF77AFE00F06AFE63
:100CC000002804D02169002721622BE0781C35E53B
:100CD000B06011E0401C00F05DFE0146204600F0CF
:100CE00028F800F057FE051EF1D028782C2805D0F2
:100CF00028787D281BD0B56000201FE500F02DFE70
:100D00000028E4D0206044600446681C00F042FEE5
:100D100001462046FFF74CFE00F03CFE0028D6D0EE
:100D200021692162276101783A29D3D0D0E7681C74
:100D300004E570B50C0005461FD004221FA1204613
:100D400003F078FED8B105221EA1204603F072FE02
:100D5000C0B104221DA1204603F06CFEB0B1207882
:100D6000222818D02D2803D0A0F13001092931D82C
:100D700021462846BDE870402EE4002070BD0220C8
:100D8000E86006E00020E860601D70BD0120E860BA
:100D90006861201D70BD21462846BDE8704007E609
:100DA00014000020886B000822220000225C080C3E
:100DB0000A0D090075253034780000006E756C6CE2
:100DC0000000000066616C73650000007472756558
:100DD000000000005B2804D07B2808D0FA4884601B
:100DE000CBE721462846BDE8704000F0DDBD214636
:100DF0002846BDE8704043E72DE9F04190460E4695
:100E0000044600F0AAFDF04F05004FF00000B86066
:100E100015D0204600F0BEFD01462846FFF789FFA9
:100E200004000ED0B8F1000F0FD0204600F0B2FD44
:100E30000446007848B12846FFF7ADFBBC600020AF
:100E40007CE42846FFF7A7FBF9E706B134602846A3
:100E500074E400221146CFE72DE9FE4F82460720B9
:100E60004FF0000B0090DAF8080015460C461F46BC
:100E70005E46CDF808B001E00068761C0028FBD182
:100E8000D1490A682EB1002F7ED0BE6845B3022139
:100E900027E03FB10DB1211D00E003211846FFF707
:100EA00041FC04E00DB1201D00E00320904701004B
:100EB0006BD07B200870481C5DB10A2200F8012B22
:100EC00000220923641E02E000F8013B521CA242EA
:100ED000FADB7D220270002242700846BDE8FE8FD8
:100EE00001218846491C1846FFF71CFC0028F5D054
:100EF0007B2100F8011B15B10A2100F8011B4FF0FE
:100F0000000980F80090B968641C01EB0800B86023
:100F1000DAF8088060E08DB121463846FFF702FC20
:100F20000028DBD00021092203E000BF00F8012BDC
:100F3000491CA142FADBB8682044B8603946D8F8A9
:100F40002000FFF7EFFD384600F013FDB8600DB14B
:100F5000022000E00120824601463846FFF7E2FB0E
:100F60000028BBD03A2100F8011B0DB10921017006
:100F7000B9683B4601EB0A00B8602A462146404664
:100F800000F007FA384601E045E062E000F0F1FCCD
:100F9000B8600DB1012100E00021D8F8000000B1D7
:100FA000012001EB000A0AF101013846FFF7BAFB04
:100FB000002893D0D8F8001011B12C2100F8011BA3
:100FC00015B10A2100F8011B80F80090B96801EB07
:100FD0000A00B860D8F80080B8F1000F9BD10DB1BD
:100FE000611C00E002213846FFF79CFB002898D0E6
:100FF0004DB100260921641E03E000BF00F8011B6B
:10100000761CA642FADB7D21017080F801903868D9
:1010100000EB060BD5E0B000074690475FEA0009F9
:1010200017D069493846096888475FEA000812D036
:101030003946484603F0BBFC3946404603F0B7FC4E
:10104000DAF8087004F1010A8DB30098504400905A
:1010500031E0002042E75C494846496858E00021F9
:10106000386AFFF75FFD019048F82B0000232A46FD
:101070005146384600F08DF9014649F82B00019899
:101080000BF1010BA0B199B1084603F0C3FC044673
:10109000019803F0BFFC211815B10AF1020000E02D
:1010A0000020014400980844801C009002E002E007
:1010B000012002903F68002FD1D1029898B942498F
:1010C0000098096888475FEA000B0CD07B218BF8F9
:1010D00000100BF1010415B10A2004F8010B0020E7
:1010E0002070074654E00024374D0AE058F82400E9
:1010F00008B16968884759F8240008B169688847C9
:10110000641CB442F2DB6968404688476968484617
:1011100088479EE73DB10020092202E004F8012B38
:10112000401C5045FADB58F8270003F073FC009090
:10113000024658F82710204603F020FC009804448B
:101140003A2004F8010B15B1092004F8010B59F8F5
:101150002710204603F065FC59F8270003F05AFCDD
:101160000444701E874202D02C2004F8010B15B1F4
:101170000A2004F8010B144900202070496858F82F
:1011800027008847104959F82700496888477F1C7D
:10119000B742BFDB0C4E40467168884771684846CD
:1011A000884755B100220921AAF1010003E000BFE0
:1011B00004F8011B521C8242FADB7D2020700020C3
:1011C000607058468AE60000140000202DE9FF4FA9
:1011D0000746052081B0002500901E46A8462C46F3
:1011E000B86801E000686D1C0028FBD1F94A11685D
:1011F00085B18246002E55D001211846B568FFF70B
:1012000091FA002814D05B210170B068401CB060D6
:10121000BC6829E026B103211846FFF783FA01E0F4
:1012200003208847040002D0EBA103F0FAFB20461C
:1012300005B0BDE8F08F039808B1022700E0012750
:10124000791C3046FFF76EFA0028F1D02C2100F807
:10125000011B039911B1202100F8011B80F800A0A7
:10126000B0683844B060246874B1DDE902123346D6
:101270002046491C00F08DF8304600F07AFBB06043
:1012800020680028EFD0D6E702213046FFF74AFA5F
:101290000028CDD05D21017080F801A0306800EBFE
:1012A000050874E0A800814693468847061EBFD013
:1012B000494603F07CFBBF6818E0DDE90212002319
:1012C0003846491C00F065F846F8280008F1010886
:1012D00050B103F09FFB039901B101210144009833
:1012E0000844801C009000E001243F6817B1002CE6
:1012F000E3D012E08CB9DBF80010009888475FEA71
:1013000000080AD05B2088F80000D14688F801A0C8
:1013100008F101040027DA462FE000245F4605E0CB
:1013200056F8240008B179688847641CAC42F7DBA2
:1013300079683046884700207AE700BF56F82700D2
:1013400003F068FB8346024656F82710204603F058
:1013500015FB681E5C44874209D02C2004F8010B61
:10136000039810B1202004F8010B84F80090DAF8FB
:10137000041056F8270088477F1CAF42DEDBDAF8FE
:101380000410304688475D20207084F80190404664
:101390004EE770B5002400284ED07BB3057B072DA7
:1013A00049D2DFE805F00D18042123252800052186
:1013B0001846FFF7B7F904003DD0AFF2006107E02F
:1013C00006211846FFF7AEF9040034D0AFF20C61E5
:1013D00003F027FB2FE005211846FFF7A3F90400CF
:1013E00029D0AFF21861F3E719461DE019461FE056
:1013F000FFF7ECFE1EE0FFF72FFD1BE0FFE7037B8E
:10140000072B18D2DFE803F0070C040F13191B0099
:10141000AFF2586001E0AFF2546000F08DFA09E0DD
:10142000AFF25860F9E70021FFF7B1F902E00021BF
:1014300000F0ADFA0446204670BD0023D8E7002333
:10144000D9E7002301221946A3E700231A461946CB
:101450009FE7FEB506460C4608465E4915460968F4
:101460008847CDE900040020014602906B462A46D9
:101470003046FFF78EFFFEBD8168002001E009685D
:10148000401C0029FBD17047806801E00068491EBC
:10149000002801D00029F9DC704770B50D4684683A
:1014A00000E024682CB12946206AFFF72CF80028B8
:1014B000F7D1204670BD70B5054600F04EFA040025
:1014C0000DD02822294603F059FA00202062E16855
:1014D000606041F48071E1602060204670BD0020B2
:1014E00070BD8268002901D01AB98160704702007E
:1014F00002D010680028FAD111604A60704770B5B8
:1015000014000D4606460DD0206A10B131494968D5
:101510008847284600F010FA206221463046BDE890
:101520007040DEE770BD70B514000D46064611D060
:10153000A089800504D4206A10B1264949688847EB
:101540002562E068214640F40070E0603046BDE866
:101550007040C6E770BD10B504460846FFF7ABFF04
:1015600001462046BDE81040BBE770B505460C4675
:101570001046FFF7A0FF024621462846BDE870400E
:10158000BDE70246806801E00068491E002811D0CE
:101590000029F9DC416809B103680B60016809B1F1
:1015A00043684B609168814201D1016891600021DC
:1015B00001604160704710B5FFF7E3FFBDE81040E0
:1015C000FEF7E9BF2DE9F0410F4606460025846885
:1015D00006E00000140000205B5D000024686D1C24
:1015E00054B13946206AFEF78EFF0028F6D129460D
:1015F0003046BDE8F041C4E7002021E410B5FFF714
:10160000E1FFBDE81040FEF7C6BF0B46816801E070
:1016100009685B1E51B1002BFADC11604B68536006
:101620004A6083688B4203D182607047114658E755
:1016300050680260704730B40346806801E000687B
:10164000491E002814D00029F9DC016811604468A3
:10165000546001B14A609968814201D19A6001E009
:1016600051680A6000214160016030BCFEF793BF01
:1016700030BC70472DE9F0411646884607460025E4
:10168000846801E024686D1C002CB6D04146206AB5
:10169000FEF739FF0028F5D1404600F04DF93062E1
:1016A000324629463846BDE8F041C4E7A5E710B503
:1016B00000F053F9002801D00221C16010BD10B51F
:1016C00000F04BF9002801D00121C16010BD10B518
:1016D00000F043F9002801D00021C16010BD10B511
:1016E000044600F03AF9002804D00CB1012100E0D2
:1016F0000021C16010BD70B505460E4600F02DF901
:10170000040008D00320E060C4E9065628463146AC
:1017100003F00FFB6061204670BD70B5054600F018
:101720001CF9040005D00420E060284600F004F90C
:101730002061204670BD10B500F00FF9002801D0DF
:101740000521C16010BD10B500F007F9002801D0D7
:101750000621C16010BD2DE9F0410F4680460024EE
:10176000FFF7E9FF064600250BE000BF58F825000B
:1017700003F0BAFAFFF7BFFF45B1206044600446AA
:101780006D1C0EB1BD42F1DB304636E7B060F6E7C6
:101790002DE9F0410F4680460024FFF7CCFF0646B6
:1017A00000250AE058F8250003F0E2FAFFF7A3FF4E
:1017B00045B12060446004466D1C0EB1BD42F1DBB2
:1017C00030461AE7B060F6E72DE9F0410F46804653
:1017D0000024FFF7B0FF064600250AE008EBC5012C
:1017E000D1E90001FFF787FF45B12060446004465E
:1017F0006D1C0EB1BD42F1DB3046FEE6B060F6E78F
:101800002DE9F0410F4680460024FFF794FF06467D
:10181000002508E058F82500FFF77FFF45B120605C
:10182000446004466D1C0EB1BD42F3DB3046E4E675
:10183000B060F6E72DE9F0410F4605004FF00006D5
:101840001CD000F08AF8041E19D0E86820F48070DB
:10185000E06068696061D5E90601C4E906012869AC
:1018600018B100F069F8206198B1286A18B100F049
:1018700063F8206268B1AFB1AD6811E00020BCE64A
:1018800001212846FFF7D6FF18B136B13060466017
:1018900004E02046FEF77FFEF0E7A0602D680646D4
:1018A000002DEDD12046A8E601461AE0D2B2202A4A
:1018B0000BD0092A09D00D2A07D00A2A05D02F2AD1
:1018C00005D0D3B2222B23D007E0401C09E0427898
:1018D0002F2A0CD0D2B22A2A10D010F8012B01F8EE
:1018E000012B0278002AE1D100200870704710F81F
:1018F000012F002AF8D00A2AF9D1D7E710F8012FD2
:1019000022B12A2AFAD142782F2AF7D1801CE8E79F
:1019100001F8012B401C08E05C2A02D101F8012BE0
:10192000401C10F8012B01F8012B02780AB1222A81
:10193000F2D101F8012BC8E770B5064603F06AF84A
:101940003649401C044609688847051E04D02246D3
:10195000314603F013F8284670BD304910B50968C8
:1019600028208847040002D0282103F020F82046D0
:1019700010BD10B5040008D0206830B1A16808443B
:1019800003F048F8A168084410BD002010BD0069AC
:10199000FFF7C8B800E0401C002804D001780029F7
:1019A00001D02029F7D970472DE9F0410446087885
:1019B0001A4E5B2801D0B1602BE00520E060481C86
:1019C000FFF7E8FF074600785D2806D0FFF7C5FF60
:1019D000051EA06002D038460AE0781C0DE600BF64
:1019E000FFF7BBFF0028F9D0286045600546601C62
:1019F000FFF7D0FF01462846FFF79BF9FFF7CAFF24
:101A0000040006D020782C28EAD020785D2802D067
:101A1000B4600020F1E5601CEFE500001400002038
:101A20003EB5002110224FF4FC63152873D00EDC64
:101A3000152838D2DFE800F0383D373742474C519F
:101A4000565B60656A70757A80858A9499001F2854
:101A500071D00ADCA0F11600092824D2DFE800F0DA
:101A600090959A9FA4A9AEB3B800242873D00CDC3B
:101A7000202871D0212870D022286FD0232812D19D
:101A8000CDE90012F9A2029109E0252867D02628A5
:101A900070D0632807D1CDE90012F7A20291462148
:101AA000642000F0E1FF3EBDCDE90012F4A20291F6
:101AB000F5E7CDE90012F5A20291F0E7CDE90012B9
:101AC000F5A20291EBE7CDE90012F5A20291E6E75B
:101AD000CDE90012F6A20291E1E7CDE90012F8A2E9
:101AE0000291DCE7CDE90012F9A20291D7E7CDE936
:101AF0000012FBA20291D2E7CDE90012F9A20291F5
:101B0000CDE7CDE90012F9A20291C8E7CDE90012B4
:101B1000F8A20291C3E72EE0CDE90012F9A20291EA
:101B2000BDE7CDE90012F9A20291B8E7CDE90012B4
:101B3000F8A20291B3E750E0CDE90012F7A20291BA
:101B4000ADE7CDE90012F7A20291A8E7CDE90012B6
:101B5000F6A20291A3E754E044E048E04CE055E0EF
:101B6000CDE90012F4A2029199E7CDE90012F4A2A6
:101B7000029194E74FE0CDE90012F3A202918EE7C3
:101B8000CDE90012F2A2029189E7CDE90012F2A29A
:101B9000029184E7CDE90012F1A202917FE7CDE93D
:101BA0000012F1A202917AE7CDE90012F0A20291AF
:101BB00075E7CDE90012F0A2029170E7CDE90012BD
:101BC000EFA202916BE7CDE90012EFA2029166E766
:101BD000CDE90012EFA2029161E7CDE90012EEA279
:101BE00002915CE7CDE90012ECA2029157E7CDE942
:101BF0000012EBA2029152E7CDE90012EAA2029193
:101C00004DE7CDE90012EAA2029148E7CDE90012C2
:101C1000E9A2029143E7CDE90012E8A202913EE772
:101C20002DE9FE4FE648FFF714F95FEA00096AD094
:101C3000E4A1FFF732FC04007ED0FFF71DFC002179
:101C40002046FFF721FC5FEA000BF5D0DFA1FFF78C
:101C500024FC002410254FF4FC66A0B1DEA1FFF7A0
:101C60001CFC80B107693C23DC221E2182200094E9
:101C700000F014FDCDE9004533463A461E2182208E
:101C8000029401F0A8F8D6A15846FFF706FCDFF849
:101C900054835FEA000A67D0D3A1FFF7FEFB18B3B5
:101CA0000769732382225F216420009400F0F6FC10
:101CB000CDE9004533463A465F216420029401F0A5
:101CC0008AF8D223F022B4211E20009400F0E6FC12
:101CD000CDE900453346C7A2B4211E20029401F08D
:101CE0007AF8642001F0C0FAC6A15046FFF7D5FB90
:101CF000D0B30769384602F08DFEC0B2012807D084
:101D0000022812D107E0FEF7FBFB0120BDE8FE8FA1
:101D10003878303808E038787978303800EB80004F
:101D2000D02202EB40000844C7B2D223F022B421F3
:101D300088F800701E2000E074E0009400F0AEFC13
:101D4000CDE900453346B1A2B4211E20029401F032
:101D500042F85A23F02246216420009400F09EFCB1
:101D600098F80000FFF75CFEABA15846FFF795FB23
:101D7000F8B10769FA23F022E6210A20009400F066
:101D80008DFCD723F02219460020009600F0B0FC0D
:101D9000CDE900453346A3A2DC210A20029401F0DC
:101DA0001AF8F021CDE9004533463A460A2002945C
:101DB0000DE0D223F022B4211E20009400F06EFC2E
:101DC000CDE9004533469BA2B4211E20029401F0C8
:101DD00002F8022188F8011000F0A5FA10BBD22306
:101DE000F022B4211E20009400F058FCCDE90045FB
:101DF000334694A2B4211E20029400F0ECFF00F0C0
:101E0000A0FA78B9D223F022B4211E20009400F069
:101E100045FCCDE90045334690A2B4211E20029432
:101E200000F0D9FF4846FEF7B6FB00206EE72DE92B
:101E3000F0419EB06248FFF70CF8060014D08BA169
:101E4000FFF72BFB002810D007690024D223F022D3
:101E5000B4211E20009400F021FC10254FF4FC68F2
:101E6000CDE90045434605E128E153E1C8C8B4F88F
:101E7000B7E7B1A900000000CEB4D6AA0000000068
:101E8000B0D7CCECA1AAC7E700000000D2B9A1AA44
:101E9000CDEDC7E700000000B6E0D4C600000000AA
:101EA000B0D7CCECA1AAC7E7BCE4B6E0D4C600002A
:101EB000D2B9CDEDA1AAC7E7BCE4B6E0D4C6000014
:101EC000B0D7CCECA1AAB4F3B2BFB6E0D4C6000040
:101ED000D2B9CDEDA1AAB4F3B2BFB6E0D4C600002A
:101EE000D2F50000D5F3D3EA00000000C0D7D5F347
:101EF000D3EA0000C0D7D5F3D3EAB0E9D3D0B1F923
:101F0000B1A20000D0A1D3EA00000000D6D0D3EAED
:101F100000000000B4F3D3EA00000000B1A9D3EA46
:101F200000000000B4F3B1A9D3EA0000CCD8B4F3A8
:101F3000B1A9D3EA00000000B6B3D3EA0000000064
:101F4000D3EABCD0D1A90000D5F3D1A9000000008C
:101F5000D0A1D1A900000000D6D0D1A90000000076
:101F6000B4F3D1A900000000B1A9D1A9000000007C
:101F7000B8A1B3BE00000000D1EFC9B3000000005B
:101F8000C9B3B3BEB1A90000C7BFC9B3B3BEB1A93D
:101F900000000000CEED0000F6B20000B7E7000040
:101FA000B4F3B7E700000000ECABB7E700000000B7
:101FB000C1FABEEDB7E70000C0E40000C8C80000E9
:101FC000602F0020726573756C7473006C6F6361B1
:101FD00074696F6E000000006E616D6500000000A6
:101FE0006E6F77002000002074656D7065726174FB
:101FF0007572650054656D70657261747572655FA8
:1020000047657400636F6465000000005765617484
:102010006865725F476574006C6173745F757064A6
:10202000617465005570646174655F74696D653ACB
:102030000000000054696D655F616E615F457272FA
:102040006F720000506173735F5468726F756768D8
:102050005F52656C65617365640000005443505FB6
:1020600052656C6561736564000000006369747992
:10207000000000002AA2B4211E20029400F0ABFE52
:1020800054222B4907A802F079FC2AA30DF10C0C6D
:102090000FCB8CE80F0007A92A4802F093FC3946C1
:1020A000284802F08FFC03A9264802F08BFC264941
:1020B0000120487000F037F930B12BE0FEF720FA2C
:1020C00001201EB0BDE8F081D223F022B4211E20F1
:1020D000009400F0E3FACDE9004547464346AFF2ED
:1020E0009C02B4211E20029400F075FE00F029F934
:1020F00080B9D223F022B4211E20009400F0CEFA41
:10210000CDE900453B46AFF2AC02B4211E2002945B
:1021100000F061FE3046FEF73EFA0020D1E70000F5
:102120004C6F636174696F6E5F47657400000000F7
:1021300070AA0008266C616E67756167653D656E03
:102140000D0A0000600000202000002004E000BF15
:1021500011F8013B00F8013B521EF9D2704701E033
:1021600000F8011B521EFBD2704710B52E4C4FF4E5
:10217000A0620021E068FFF7F2FF4FF42052002137
:10218000A068FFF7ECFF0120207410BD704770B508
:10219000254C06460025207C08B9206880474FF072
:1021A000FF33FEB1C6F30F11300701D0491C89B2CD
:1021B000D4F80C2040F27F2032F8106026B10025C0
:1021C0008D420DD1002207E06D1CADB2F8E7E36847
:1021D0008518521C23F815108A42F8D3000170BDEF
:1021E000401EE9D5184670BD70B50F490A7C4AB14A
:1021F000B0F5205F13D20209C86830F81230002011
:10220000044608E008688047012070BDCD681618B4
:10221000401C25F816409842F8DB002070BD0220D3
:1022200070BD7047704770472400002010B5BE4C49
:10223000218809040CD50146BC4802F0CFFB228856
:10224000BA4BC2F30E020021995408B1002010BD10
:10225000012010BD2DE9F041B34D002614468846FB
:1022600037462E8001F0B9F8142000F0FDFFB8F1D8
:10227000000F13D05CB911E00A2000F0F5FF2888A8
:10228000000404D54046FFF7D1FF28B12F80641E1B
:102290002404240CF0D100E004B901263046BDE846
:1022A000F0813222A2A1A4A0D4E73222A7A1A8A043
:1022B000D0E73222A8A1AAA0CCE74FF4FA62A3A1EA
:1022C000AAA0C7E732229AA1B0A0C3E7964900208E
:1022D0004FF4FA72088096A1B0A0BBE74FF4FA72EF
:1022E0009AA1B9A0B6E74FF4FA7298A1BAA0B1E7E3
:1022F00070B58D4C002635462680BB4801F06DF840
:102300004FF4FA6000F0B0FF41F2883000F0ACFF0B
:102310002088010405D58549C0F30E000D54FFF750
:102320007FFC304670BD08B5B0A0006800906846DC
:1023300001F053F84FF4FA7000F096FFFFF7B5FF85
:1023400008BD4FF4FA7281A1A9A083E77649002065
:102350004FF4FA72088076A1A9A07BE730B5724DE0
:102360008BB000242C802822B1A1684602F006FB25
:10237000684601F032F84FF4FA6000F075FF41F260
:10238000883000F071FF2888010405D56749C0F343
:102390000E000C54FFF74BFD0BB0204630BDFEB5D0
:1023A000FFF783FF002853D1FFF77BFF00284FD1B1
:1023B0000024D223F022B4211E20009400F06EF9F4
:1023C00010254FF4FC66CDE900453346A2A2B421A6
:1023D0001E20029400F0FFFCFFF76FFF002837D1AA
:1023E000D223F022B4211E20009400F057F9CDE949
:1023F000004533469CA2B4211E20029400F0EBFC61
:102400000120FFF75FFF002822D1FFF79FFF002880
:102410001ED1D223F022B4211E20009400F03EF9F8
:10242000CDE90045334694A2B4211E20029400F069
:10243000D2FCFFF753FF00280AD1FFF754FF002812
:1024400006D14FF4FA6000F00FFFFFF787FF01207D
:10245000FEBDFEB5FFF729FF80BB0024D223F0228A
:10246000B4211E20009400F019F910254FF4FC66E9
:10247000CDE90045334678A2B4211E20029400F035
:10248000AAFC0020FFF71EFFC0B9FFF71FFFA8B985
:10249000D223F022B4211E20009400F0FFF8CDE9F1
:1024A0000045334679A2B4211E20029400F093FC2B
:1024B000FFF714FF10B9FFF716FF08B10020FEBDAB
:1024C0004FF4FA6000F0D0FEFFF712FF0120FEBDCE
:1024D00010B541F28834204600F0C6FE204600F0D8
:1024E000C3FE204600F0C0FE204600F0BDFE2046A0
:1024F00000F0BAFE204600F0B7FE204600F0B4FE21
:102500000020FFF7DFFE40B1FFF7E0FE28B9FFF73C
:10251000E5FE10B9FFF7E7FE08B1002010BDFFF798
:10252000E7FE012010BD00003C000020602F0020CD
:102530004F4B0D0A0000000041542B43574D4F44B0
:10254000455F4445463D310D0A0000004F4B0000F9
:1025500041540D0A000000007265616479000000BA
:1025600041542B5245540D0A0000000041542B43A6
:10257000574A41503D2230323032222C2231323300
:10258000343536796A79220D0A00000041542B4314
:1025900049504D55583D300D0A00000041542B4321
:1025A000495053544152543D22544350222C2261ED
:1025B00070692E73656E6976657273652E636F6DD3
:1025C000222C38300D0A000041542B4349504D4F06
:1025D00044453D310D0A000041542B4349505345B9
:1025E0004E440D0A00000000600000202B2B2B0041
:1025F00041542B434950434C4F53450D0A000000B2
:1026000041542B43495053544152543D225443505A
:10261000222C2269702E757365726167656E74690C
:102620006E666F2E636F6D222C38300D0A0000002D
:102630004745542068747470733A2F2F69702E7553
:102640007365726167656E74696E666F2E636F6D18
:102650002F6A736F6E0D0A00455350383236365F5D
:102660005265616479000000576946495F436F6EA7
:102670006E656374656400005463705F49705F4306
:102680006F6E6E6563746564000000005443505FB4
:10269000436F6E6E65637465640000002DE9F0475A
:1026A00080461F46581E83B21646501E82B20C4604
:1026B0004046DDF8209000F0BDFC0AE0454604E00D
:1026C000484600F09EFC6D1CADB2B542F8D3641CC8
:1026D000A4B2BC42F2D3BDE8F08710B514460B4655
:1026E000024600F0A7FC2046BDE8104000F089BC7F
:1026F0002DE9FE4F161ACDE900104FF000085D1AC3
:1027000047464FF0FF30002E02DD4FF0010102E09E
:1027100003D14FF000018B4602E08346C6F100066C
:10272000002D02DD4FF0010002E003D14FF0000068
:10273000824602E08246C5F10005AE4201DD344624
:1027400000E02C46601C4FF00009029019E0009850
:102750000C9A81B2019880B2FFF7BFFFB0442F44BA
:10276000A04504DD0198A8EB040858440190A74255
:1027700003DD00983F1B5044009009F101001FFA4F
:1027800080F902998945E2DBBDE8FE8F2DE9F84327
:102790001D46089C1646884607460B460094FFF7E0
:1027A000A7FF3A462B46414610460094FFF7A0FF8C
:1027B0002B463246194638460094FFF799FF3246B9
:1027C0002B46414610460094FFF792FFBDE8F88380
:1027D0002DE9FF4F83B090460E460746002514466C
:1027E0004FE000BF381BA6EB050902901FFA89F1E4
:1027F00080B2069AFFF771FF381901901FFA89F12C
:1028000080B2069AFFF769FF301981B2A7EB05097C
:1028100000901FFA89F0069AFFF75FFFA6EB040B02
:102820001FFA8BF11FFA89F0069AFFF756FF0198FD
:1028300006EB050A1FFA8AF180B2069AFFF74DFFF0
:1028400007EB05091FFA8BF11FFA89F0069AFFF7CB
:1028500044FF0098069A81B21FFA89F0FFF73DFF06
:1028600002981FFA8AF180B2069AFFF736FF6D1CB4
:1028700005FB05F004FB040108FB08F0814200DDC4
:10288000641EA542AEDD07B0BDE8F08F2DE9FF4F15
:1028900083B08046119D00904FF00009680700D07A
:1028A000012000EBD50000FB05FB0520002602906F
:1028B000FC48059A06EB861110F811301278934205
:1028C00050D100EB41000190417805984078814259
:1028D00048D1049804992844401E83B208EB0500AF
:1028E000401E82B2404600F0A5FB002738E0019868
:1028F000002400EB070A12989AF8021000284FF003
:10290000010000FA04F001EA000114D021B14046B0
:10291000069A0499FFF7E1FE08F1010000991FFAF9
:1029200080F8A8EB0100A84214D104988846401C06
:1029300080B2049012E009B1069800E0109800F00F
:1029400060FB09F10100C0B2B0FBF5F1814605FB67
:10295000119068B1641CE4B2082CCCD37F1CFFB288
:102960005F45C4D3761C0298B6B28642A0D38AE7EC
:102970004FF00009F2E72DE9FF4F83B08046119D2B
:1029800000904FF00009680700D0012000EBD5004F
:1029900000FB05FB05200026CDF8080006EB8600AD
:1029A00000EB4611C048059A10F811301278934296
:1029B00051D100EB41000190417805984078814267
:1029C00049D1049804992844401E83B208EB0500BD
:1029D000401E82B2404600F02DFB002739E00198EE
:1029E000002400EB070A12989AF8021000284FF012
:1029F000010000FA04F001EA000115D021B14046BF
:102A0000069A0499FFF769FE08F101001FFA80F8A1
:102A10000098A8EB0000A84215D10498DDF80080CA
:102A2000401C80B2049012E009B1069800E01098B2
:102A300000F0E7FA09F10100C0B2B0FBF5F1814600
:102A400005FB119068B1641CE4B2082CCBD37F1C49
:102A5000FFB25F45C3D3761C0298B6B286429DD3BF
:102A600011E74FF00009F2E72DE9FF4F83B08046F0
:102A7000119D00904FF00009680700D0012000EB85
:102A8000D50000FB05FB2C20002602908748059A04
:102A900006EB061110F811301278934250D100EB7A
:102AA00041000190417805984078814248D10498CE
:102AB00004992844401E83B208EB0500401E82B2F0
:102AC000404600F0B7FA002738E00198002400EBF8
:102AD000070A12989AF8021000284FF0010000FA35
:102AE00004F001EA000114D021B14046069A04998D
:102AF000FFF7F3FD08F1010000991FFA80F8A8EB39
:102B00000100A84214D104988846401C80B2049069
:102B100012E009B1069800E0109800F072FA09F18D
:102B20000100C0B2B0FBF5F1814605FB119068B120
:102B3000641CE4B2082CCCD37F1CFFB25F45C4D325
:102B4000761C0298B6B28642A0D39CE64FF00009EC
:102B5000F2E72DE9FF4F83B08046119D00904FF0C2
:102B60000009680700D0012000EBD50000FB05FB41
:102B700005200026CDF8080006EB860000EBC60114
:102B80004A48059A823810F811301278934251D190
:102B900000EB41000190417805984078814249D18D
:102BA000049804992844401E83B208EB0500401E97
:102BB00082B2404600F03EFA002739E00198002436
:102BC00000EB070A12989AF8021000284FF0010053
:102BD00000FA04F001EA000115D021B14046069A3E
:102BE0000499FFF77AFD08F101001FFA80F80098B8
:102BF000A8EB0000A84215D10498DDF80080401C25
:102C000080B2049012E009B1069800E0109800F03C
:102C1000F8F909F10100C0B2B0FBF5F1814605FBFE
:102C2000119068B1641CE4B2082CCBD37F1CFFB2B6
:102C30005F45C3D3761C0298B6B286429CD322E687
:102C40004FF00009F2E72DE9FE4F9946DDE90D4608
:102C500015468A460746DDF8308014E00C2C16D065
:102C6000102C25D0182C2ED0202C0FD1CDF8008080
:102C7000CDE901464B462A4651463846FFF706FE47
:102C8000381987B2AD1C28780028E7D17CE5CDF84B
:102C90000080CDE901464B462A4651463846FFF7AB
:102CA00058FFEDE74FA70008DDA5000805A00008C4
:102CB000CDF80080CDE901464B462A4651463846BC
:102CC000FFF7D2FEDCE7CDF80080CDE901464B46A8
:102CD0002A4651463846FFF74EFED1E72DE9FF4F11
:102CE00081B00446DDF83C9000904FEA59074FF060
:102CF0000008780700D0012000EBD70000FB09FB9B
:102D0000203AD0B20390029802994844401E83B200
:102D1000E019401E82B2204600F08CF9002553E0F5
:102D2000B9F10C0F2AD0B9F1100F2ED0B9F1180F4C
:102D30002ED0B9F1200F49D18D49039801EB8010B5
:102D4000002610F805A0109800284FF0010000FAA6
:102D500006F000EA0A0022D020B12046049A029927
:102D6000FFF7BBFC641C0098A4B2201AB84225D11E
:102D70000298009C401C80B2029023E003987D4999
:102D800000EB400001EB8000DAE77B49039803E0A9
:102D900003987A4900EB400001EB0010D0E708B13E
:102DA000049800E00E9800F02CF908F10100C0B280
:102DB000B0FBF7F1804607FB118048B1761CF6B2F4
:102DC000082EC0D36D1CADB25D45A9D305B05BE53F
:102DD0004FF00008F6E72DE9FE4F9946DDE90D6753
:102DE00014468A460546DDF830800CE0CDF80080B8
:102DF0004B4651462846CDE90167FFF76FFF05EBCB
:102E0000560085B2641C2278002AEFD1BCE4024649
:102E1000012000E05043491EC9B2FBD270472DE9A2
:102E2000FF4F83B00026DDE911B81D4682464FEA08
:102E300058073446B1462CE0281B401EC1B20A2078
:102E4000FFF7E5FF0599B1FBF0F00A21B0FBF1F2C5
:102E500001FB120026B9691E8C4201DA58B1012625
:102E60003030C2B204FB07A0CDF800B0CDE9018933
:102E700080B2109B08E0CDF800B004FB07A0CDE9BC
:102E80000189109B80B220220499FFF727FF641C60
:102E9000E4B2AC42D0D3F6E42DE9FF4F83B08346D1
:102EA000129F1D467E083649104601F0D2FD01F002
:102EB0002CFF00241FFA80F9A2462DE0281B401E9B
:102EC000C1B20A20FFF7A3FFB9FBF0F00A21B0FB63
:102ED000F1F201FB1208A81E84420ED1119A00FBE8
:102EE00006B08DE8840480B22E22109B0499FFF76F
:102EF000F5FE641C6D1CE4B2EDB2119908F13000CE
:102F00008DE88204C2B204FB06B080B2109B049923
:102F1000FFF7E4FE641CE4B2AC42CFD3B3E42DE986
:102F2000F0471F469046CA19521E93B200EB0802A2
:102F3000521E002592B2DDF8209000F07BF80026AA
:102F400012E000240CE000BF19F8150000F058F85A
:102F500009EB4500407800F053F8641CA4B26D1CE6
:102F6000BC42F1D3761CB6B24645EAD3BDE8F08741
:102F7000C38700088F6B000803700008F375000812
:102F80000000C84238B50121042000F03CFD3F207C
:102F9000ADF8000010208DF8030003209A4C8DF846
:102FA00002006946204600F044FB3F21204600F025
:102FB000AEFB38BD70B5944E05461021304600F08A
:102FC000A8FB00240121304600F0A3FB28064FF0A7
:102FD0000201304602D500F09AFB01E000F099FBB7
:102FE0000121304600F093FB6806641C050EE4B234
:102FF000082CE7D33046BDE87040102100F087BBB5
:10300000D8E710B50446000AFFF7D4FFE0B2BDE8E8
:103010001040CFE770B57C4C05460821204600F0F3
:1030200078FB2846FFF7C6FF2046BDE87040082120
:1030300000F06DBB2DE9F04106461C4617460D46D3
:103040002A20FFF7E7FF3046FFF7DBFF3846FFF7A0
:10305000D8FF2B20FFF7DEFF1435A8B2FFF7D1FF12
:103060001434A0B2FFF7CDFFBDE8F0412C20D1E72A
:1030700010B5FFF787FF644C0421204600F049FBA0
:10308000642000F0F1F80421204600F040FB6420A9
:1030900000F0EAF82021204600F039FB642000F01F
:1030A000E3F81120FFF7B6FF782000F0DDF83620B6
:1030B000FFF7B0FF0020FFF77DFF3A20FFF7AAFFE0
:1030C0000520FFF777FFB220FFF7A4FF0C20FFF7E2
:1030D00071FF0C20FFF76EFF0020FFF76BFF33201E
:1030E000FFF768FF3320FFF765FFB720FFF792FF78
:1030F0003520FFF75FFFBB20FFF78CFF3220FFF783
:1031000059FFC220FFF786FF0120FFF753FFC320BE
:10311000FFF780FF1520FFF74DFFC420FFF77AFF70
:103120002020FFF747FFC620FFF774FF0F20FFF7AF
:1031300041FFD020FFF76EFFA420FFF73BFFA12047
:10314000FFF738FFE020FFF765FFD020FFF732FFE1
:103150000820FFF72FFF0E20FFF72CFF0920FFF7B5
:1031600029FF0920FFF726FF0520FFF723FF312065
:10317000FFF720FF3320FFF71DFF4820FFF71AFF5E
:103180001720FFF717FF1420FFF714FF1520FFF794
:1031900011FF3120FFF70EFF3420FFF70BFFE12076
:1031A000FFF738FFD020FFF705FF0820FFF702FFE9
:1031B0000E20FFF7FFFE0920FFF7FCFE0920FFF7B6
:1031C000F9FE1520FFF7F6FE3120FFF7F3FE33205E
:1031D000FFF7F0FE4820FFF7EDFE1720FFF7EAFEAD
:1031E0001420FFF7E7FE1520FFF7E4FE3120FFF77C
:1031F000E1FE3420FFF7DEFE2120FFF70BFFBDE8E4
:103200001040292006E700000008014010B56FF0CB
:10321000040000F020FE204820490068B0FBF1F0D7
:10322000C1B21F4801EB41020170C2EBC1114FF660
:10323000FF7202EAC101418010BD19490978484373
:103240004FF0E021486100228A61086940F00100E6
:1032500008610869C30701D0C003FAD5086920F0E6
:10326000010008618A6170470D49498848434FF061
:10327000E021486100228A61086940F0010008618C
:103280000869C30701D0C003FAD5086920F001001E
:1032900008618A61704700000000002000127A0077
:1032A00038000020010010B5A74805D000210446D1
:1032B00001F023FB01212046BDE8104001F01FB9B9
:1032C0007FB50C4605460121042000F0A5FBADF8B2
:1032D00000400020ADF804509B4CADF80600ADF85E
:1032E00002006946204600F061FE01221146204698
:1032F00001F01AF91E208DF80C0001208DF80D0048
:1033000002218DF80E108DF80F0003A800F063FD68
:103310007FBD70B5054686B0012144F2040000F07F
:1033200072FB4FF40070ADF8100003248DF81240CA
:103330001820864E8DF8130004A9304600F079F964
:103340003015ADF8100004208DF8130004A93046A4
:1033500000F06FF925208DF814008DF815408DF8D8
:10336000164001208DF8170005A800F034FD002458
:103370000095ADF808400C20754DADF80440ADF84F
:103380000A00ADF80640ADF80C406946284600F04A
:10339000B9FB012240F22551284600F030FC012102
:1033A000284600F022FC41F61F4140F2E730FFF7CB
:1033B00087FF684804800020FFF774FF06B070BDE7
:1033C00010B5634C0146204600F065FC40212046C4
:1033D00000F0C2FC0028F9D010BD10B5044602E090
:1033E000641CFFF7EDFF20780028F9D110BD70B5FF
:1033F000574C40F22551204600F0B8FC002816D06A
:10340000204600F04CFC534CC5B22088B0F5007F3C
:103410000ED200214C4801F070FA208810B901202A
:10342000FFF740FF4C4920880D54401C208070BDA0
:1034300040F40040FAE710B5434C0121204601F06A
:1034400088FA00280CD04349088840F400400880DE
:103450000121204601F089FABDE81040002021E753
:1034600010BDF0B5064687B00121042000F0CBFA6C
:103470000121480400F0D0FA0425ADF810500324CF
:103480008DF812401820314F8DF8130004A93846EA
:1034900000F0CFF80820ADF810008DF8135004A903
:1034A000384600F0C6F826208DF814008DF8154037
:1034B0008DF8164001208DF8170005A800F08BFC50
:1034C0000020ADF80400ADF80600ADF80800ADF836
:1034D0000C000C20214CADF80A00009669462046ED
:1034E00000F010FB012240F22551204600F087FB3E
:1034F0000121204600F079FB07B0F0BD10B5174C54
:1035000040F22551204600F031FC002804D020462E
:10351000BDE8104000F0C3BB10BD10B50F4C014614
:10352000204600F0B8FB4021204600F015FC0028A2
:10353000F9D010BD10B5044602E0641CFFF7EDFFA2
:1035400020780028F9D110BD000800400008014093
:10355000003801403C000020602F00200044004063
:103560000648804706480047FEE7FEE7FEE7FEE71D
:10357000FEE7FEE7FEE7FEE7FEE7FEE74D04000894
:1035800031010008914910B5884206D1012104207B
:1035900000F04BFA002104203BE08D49884206D11F
:1035A0000121082000F041FA0021082031E089497A
:1035B000884206D10121102000F037FA00211020A6
:1035C00027E08549884206D10121202000F02DFA0C
:1035D000002120201DE08149884206D101214020A0
:1035E00000F023FA0021402013E07D49884206D1F3
:1035F0000121802000F019FA0021802009E079499A
:1036000088420AD184150121204600F00EFA0021DB
:103610002046BDE8104000F008BA10BD10B50121E9
:10362000084600F002FA0021BDE81040012000F039
:10363000FCB9F0B5CA78002502F00F03D20601D517
:103640008A7813430A784FF00F0E12F0FF0F4FF0F5
:1036500001021DD0D0F800400F8802FA05F637406D
:10366000B74211D14FEA850C0EFA0CF724EA07078E
:1036700003FA0CF43C43CF78282F02D0482F02D015
:1036800002E0466100E006616D1C082DE4D3046091
:103690000C88FF2C1ED944685FF0000606F108076D
:1036A00002FA07F50F882F40AF420FD14FEA860C80
:1036B0000EFA0CF7BC4303FA0CF73C43CF78282FE3
:1036C00000D14561CF78482F00D10561761C082EC6
:1036D000E4D34460F0BD4FF6FF7101800221817098
:1036E0000421C17070470246002092680A4200D04F
:1036F00001207047806880B2704702460020D2687F
:103700000A4200D001207047C06880B27047016152
:103710007047416170470AB101617047416170476C
:10372000C160704741F48032826181618261816948
:10373000806970472C4B10B51A684FF68074224090
:1037400042EA00100843186010BD2849C86170475C
:10375000F0B5254C002801DAE36900E06368420D0A
:10376000120185B2C0F301579540C0F30346032F01
:1037700005D0C2020AD50322B240934307E023F0EA
:103780007062636823F07063636002E0AB4343F0F0
:10379000706201B12A43002801DAE261F0BD626083
:1037A000F0BD10B58A0721F003040F49130F21441F
:1037B0000F228C689A4094438C608A689840024338
:1037C0008A6010BD0949C1F8DC007047000801405B
:1037D000000C01400010014000140140001801409D
:1037E000001C014000200140000001400000204278
:1037F000A448016841F0010101604168A24A1140FA
:1038000041600168A14A11400160016821F48021F2
:103810000160416821F4FE0141604FF41F018160A5
:10382000704798490A6822F480320A600A6822F4D4
:1038300080220A60B0F5803F07D0B0F5802F03D119
:10384000086840F4A02008607047086840F48030A1
:10385000F9E70246002053098A49012B0AD0022BBE
:103860000AD0496A02F01F02012393400B4200D0A4
:10387000012070470968F5E7096AF3E718B50020E9
:103880004FF4A06400903120FFF7E3FF0099491C3A
:103890000091A14201D00028F5D03120FFF7D9FFD7
:1038A000002800D0012018BD76490A6822F0F802ED
:1038B00042EAC00008607047754908607047714A65
:1038C0005368084323F47C131843506070477049D1
:1038D000086670476B4A516821F00301014351604B
:1038E00070476848406800F00C007047654A5168AE
:1038F00021F0F001014351607047624A516821F4A0
:10390000E0610143516070475E494A6822F46052A9
:1039100042EAC000486070475A4A0029517A01D0F3
:10392000014300E08143517270475949C1F8D80002
:103930007047544A516821F4404101435160704737
:103940005049002281F8202081F82020012802D04F
:10395000042802D1052081F8200070474D490860F5
:10396000704748490A6A02430A6270474949443924
:103970000860704730B543494A6812F00C03464A64
:1039800003D0042B01D0082B21D002604A680F23FA
:10399000424C03EA1212A35C0268DA4042604B68B0
:1039A000072505EA1323E35C22FA03F383604B68DF
:1039B00005EAD323E35CDA40C2604968032303EAE3
:1039C0009131231F595CB2FBF1F1016130BD4A68AE
:1039D0004B6802F470124FF0020413F4803F04EBC2
:1039E000924202D04B689B0301D52D4B00E02A4B3D
:1039F0005A43CAE7234A0029516901D0014300E034
:103A00008143516170471F4A0029916901D00143E8
:103A100000E08143916170471A4A0029D16901D0C1
:103A2000014300E08143D1617047164A0029D16803
:103A300001D0014300E08143D1607047114A002961
:103A4000116901D0014300E08143116170471149C0
:103A50004039086070470E49C86470470949C87109
:103A600070470848416A41F0807141627047054AD9
:103A70000146002092680A4200D0012070470149A7
:103A800088727047001002400000FFF8FFFFF6FE4A
:103A9000000042428004424200127A0044000020AA
:103AA00000093D00C44910B588420AD101218C03A8
:103AB0002046FFF7BAFF2046BDE810400021FFF77F
:103AC000B4BFBE49884202D101214C0410E0BC4978
:103AD000884202D101218C040AE0BA49884202D10D
:103AE0000121CC0404E0B84988420AD101210C0527
:103AF0002046FFF7A3FF2046BDE810400021FFF756
:103B00009DBF10BD30B50446008A85B00D464CF609
:103B1000FF710840E98801432182A1894EF6F31024
:103B20000140A8882A8910436A890A431043A0816A
:103B3000A08A4FF6FF410840A9890143A182684647
:103B4000FFF718FF9C48844201D1039800E00298D7
:103B5000A189090400EBC00101EB0010296801D51F
:103B6000490000E08900B0FBF1F06422B0FBF2F103
:103B700009010B096FF018056B4300EB8300A38963
:103B80001D044FF0320306D503EBC000B0FBF2F08A
:103B900000F0070005E003EB0010B0FBF2F000F0CE
:103BA0000F000843208105B030BD4FF4165101606D
:103BB00000218180C18001810C2242818181704776
:103BC00010B5038A4FF2FF0213400A884C88224343
:103BD0008C88C9880C4322431A43028210BD0021FD
:103BE000018041808180C18070470029818902D095
:103BF00041F4005101E021F400518181704710B57A
:103C0000C1F3421301F01F040121A140012B07D091
:103C1000022B07D01430002A026805D00A4304E0C2
:103C20000C30F8E71030F6E78A43026010BD002A36
:103C3000828A01D00A4300E08A4382827047028A66
:103C400022F00F020282028A0A43028270478289AE
:103C500022F40062828182890A43828170470029AE
:103C6000818902D041F0020101E021F0020181814D
:103C70007047028A22F020020282028A0A430282EC
:103C800070470029018A02D041F4804101E021F40B
:103C9000804101827047C1F30801818070478088AC
:103CA000C0F308007047818941F0010181817047AC
:103CB000028BD2B20283028B42EA01210183704758
:103CC000028B02F47F420283028B0A430283704715
:103CD0000029818A02D041F0200101E021F0200179
:103CE000818270470029818A02D041F0100101E0F1
:103CF00021F01001818270470029818A02D041F0B1
:103D0000080101E021F008018182704700298189C2
:103D100002D041F4004101E0C1F30E0181817047FE
:103D20000029818A02D041F4006101E021F40061A0
:103D300081827047828A22F004028282828A0A4348
:103D4000828270470029818A02D041F0020101E09D
:103D500021F00201818270470246002012880A4247
:103D600000D001207047C9430180704730B501F091
:103D70001F0201240025C1F3421304FA02F2012BB1
:103D80000FD0022B0FD0838A4FEA112100881342F3
:103D900004FA01F400EA040001D000B1012528462C
:103DA00030BD8389F0E7038AEEE70A0A01219140DA
:103DB000C9430180704700000038014000440040C2
:103DC00000480040004C0040005000402849084393
:103DD00028490860704770B50F23C4780178012224
:103DE000F4B1244C2468457804F4E064C4F5E0643C
:103DF000240AC4F10406E3408478B5401C402C43F7
:103E000001F1E021230181F80034007800F01F0166
:103E10008A404009800000F1E020C0F8002170BD18
:103E200001F01F0082404809800000F1E020C0F846
:103E3000802170BD104A114001430E48001F0160EF
:103E400070470C4A121D0029116801D0014300E09F
:103E50008143116070474FF0E0210428086903D0C6
:103E600020F004000861704740F00400FAE7000009
:103E70000000FA050CED00E080FFFF1FF94910B5C6
:103E8000884202D10121C41486E0B0F1804F09D0EC
:103E9000F54988420DD101210220FFF7CFFD002115
:103EA000022064E001210846FFF7C8FD002101203F
:103EB0005DE0EE49884206D101210420FFF7BEFDF6
:103EC0000021042053E0EA49884206D1012108205C
:103ED000FFF7B4FD0021082049E0E649884206D1F9
:103EE00001211020FFF7AAFD002110203FE0E24948
:103EF000884206D101212020FFF7A0FD00212020CB
:103F000035E0DE49884202D10121441444E0DC4915
:103F1000884202D10121CC043EE0DA49884202D134
:103F200001210C0538E0D849884202D101214C0515
:103F300032E0D649884206D101214020FFF77EFDBC
:103F40000021402013E0D249884206D1012180207F
:103F5000FFF774FD0021802009E0CE4988420AD194
:103F6000841501212046FFF769FD00212046BDE8A8
:103F70001040FFF763BDC849884202D101210C04FB
:103F80000AE0C649884202D101214C0404E0C44938
:103F900088420AD101218C042046FFF746FD2046C5
:103FA000BDE810400021FFF740BD10BD30B50288CC
:103FB000AC4BB24C98420DD0A0420BD0B0F1804F28
:103FC00008D0A94DA84205D0A84DA84202D0A84DBE
:103FD000A84203D122F070054A882A43A54DA84281
:103FE00006D0A54DA84203D022F44075CA882A43C2
:103FF00002808A8882850A88028598420AD0A04277
:1040000008D0A54A904205D0A44A904202D0A44AC2
:10401000904201D1097A01860121818230BD30B5FB
:10402000028C22F001020284028C8388048B22F02D
:10403000020224F073050C882C430D8915434A882D
:104040002A43884DA8420BD08C4DA84208D0924DEF
:10405000A84205D0914DA84202D0914DA8420DD161
:1040600022F008054A8923F440732A4322F004050C
:104070008A882A438D891D43CB892B4383800483FF
:10408000C9888186028430BD70B5028C22F010028E
:104090000284028C8488038B0D8823F4E6464FF655
:1040A000FF7303EA052535430E8922F0200203EA57
:1040B000061616434A8803EA02123243694EB0429A
:1040C00002D06E4EB04215D122F080064A8924F407
:1040D000406403EA0212324322F040068A8803EA6F
:1040E000021232438E8903EA86062643CC8903EA0C
:1040F0008404344384800583C9880187028470BDA9
:1041000070B5028C22F480720284028C8488838BC6
:104110000D8823F073031D4322F400730E894FF6BC
:10412000FF7202EA06261E434B8802EA032333434A
:104130004C4EB04202D0514EB04215D123F400662D
:104140004B8924F4405402EA0323334323F480666A
:104150008B8802EA032333438E8902EA061626433C
:10416000CC8902EA0414344384808583C98881871A
:10417000038470BD70B5028C22F480520284048CDA
:104180008288838B0D8823F4E6464FF6FF7303EA9B
:104190000525354324F400560C8903EA04343443DE
:1041A0004E8803EA063626432E4CA04202D0334CFA
:1041B000A04205D122F480448A8903EA8212224374
:1041C00082808583C988A0F84010068470BD828BE8
:1041D00022F440628283828B4FF6FF7303EA01214F
:1041E0000A4382837047828B22F00C028283828B87
:1041F0000A4382837047028B22F440620283028B5F
:104200004FF6FF7303EA01210A4302837047F0B5BA
:10421000048C24F010040484078B048C4FF6FF7583
:1042200027F4734705EA03333B4305EA02221A43A6
:104230000C4B05EA011698420ED0104B98420BD059
:10424000B0F1804F08D0084B984205D0074B9842F8
:1042500002D0074B984225D124F02001314341F090
:10426000100124E0002C0140000400400008004040
:10427000000C0040001000400014004000340140D9
:10428000004C014000500140005401400018004023
:10429000001C00400020004000400140004401405C
:1042A0000048014024F0A0030B4343F010010283B7
:1042B0000184F0BD028B22F00C020283028B0A43C0
:1042C0000283704770B5048C24F001040484058BCC
:1042D000048C4FF6FF7606EA0313134325F0F3052B
:1042E000F94A2B4390420ED0F84A90420BD0B0F1DD
:1042F000804F08D0F64A904205D0F64A904202D04C
:10430000F54A904202D124F0020201E024F00A02B0
:104310000A4342F001010383018470BD2DE9F05F7F
:104320000D4604460888E84FDFF8A0C3DFF8A083F5
:104330004988AA882B894FF0804960B3042832D07D
:104340004FF6FF7E082836D0208C9B4620F4805004
:104350002084A38B268C704600EA022223F4734348
:104360001A4300EA0B3010430EEA013EBC420BD068
:10437000644509D04C4507D0444505D0D54A944200
:1043800002D0D54B9C4245D126F4005141EA0E01A2
:1043900041F4805143E02046FFF794FFE98820462E
:1043A000BDE8F05F86E72046FFF731FFE988204649
:1043B000BDE8F05F1FE7208C20F480702084B4F803
:1043C0001CA0208C0EEA031313432AF0F30A0EEA12
:1043D000012B43EA0A03BC420BD0644509D04C458B
:1043E00007D0444505D0BB4A944202D0BA4A944211
:1043F00004D120F4007040EA0B0002E020F42060B9
:10440000084340F48070A3832084E9882046BDE8F7
:10441000F05FE8E626F402420A4342F48051A083AA
:1044200020462184E988BDE8F05FD0E62DE9F0411F
:104430000C46002649880746012501B90226A288B4
:10444000012A00D10225208823890028384610D06F
:10445000FFF7DDFEE1883846FFF7CDFE23892A46C7
:1044600031463846FFF72EFFE1883846BDE8F04177
:1044700020E7FFF727FFE1883846FFF71BFF238976
:104480002A4631463846FFF7C2FEE1883846BDE885
:10449000F041B0E610B50A884B88CC881A438B8867
:1044A00023431A430B891A434B8989891A430A43C8
:1044B000A0F8442010BD4FF6FF71818000210180DB
:1044C000C18041800172704700210180418081805C
:1044D000C180018141818181C181704700210180BA
:1044E000418001228280C1800181704700210180CA
:1044F00041808180C1800181418181817047002993
:10450000018802D041F0010101E021F001010180A8
:104510007047002930F8441F02D041F4004101E007
:10452000C1F30E0101807047002A828901D00A433D
:1045300000E08A4382817047818270471143A0F86E
:1045400048107047002A828901D00A4300E08A435C
:1045500082817047018921F007010181704702893A
:1045600022F070020A430281704700B50346FFF74C
:10457000F6FF188940F00700188100BD70B5164697
:104580000D46602904464FF0010231460AD0FFF77C
:1045900099FE29462046FFF7E2FF208940F00700F8
:1045A000208170BDFFF733FEF3E730B504894FF685
:1045B000FF7505EA03231343E4B20B43234303814E
:1045C00030BD10B50446FFF7F0FF208940F07700BA
:1045D000208110BD10B50446FFF7E7FF208940F4A5
:1045E0008040208110BD018582827047028822F0C0
:1045F00070020A430280704770B50589048B068CEF
:1046000025F007050D434FF6FC410C4040F2011127
:104610000C434FF6FF7101EA031126F02206114305
:10462000314305810483018470BD028B22F0700246
:104630000A4302837047028B4FF6FF7322F4E04275
:1046400003EA0121114301837047828B22F070023B
:104650000A4382837047828B4FF6FF7322F4E04255
:1046600003EA01211143818370470029018802D0A8
:1046700041F0800101E021F08001018070470029B4
:10468000818802D041F0040101E021F00401818021
:1046900070470029818802D041F0080101E021F033
:1046A0000801818070470029818802D041F0010112
:1046B00001E021F0010181807047028B22F00802A5
:1046C0000A43028370470000002C0140003401407F
:1046D0000004004000080040000C0040028B4FF630
:1046E000FF7322F4006203EA012111430183E9E729
:1046F000828B22F008020A438283E3E7828B4FF623
:10470000FF7322F4006203EA012111438183D9E798
:10471000028B22F004020A430283D3E7028B4FF696
:10472000FF7322F4806203EA012111430183C9E788
:10473000828B22F004020A438283C3E7828B4FF606
:10474000FF7322F4806203EA012111438183B9E7F8
:10475000028B22F080020A430283B3E7028B4FF6FA
:10476000FF73C2F30E0203EA012111430183A9E79B
:10477000828B22F080020A438283A3E7828B4FF66A
:10478000FF73C2F30E0203EA01211143818399E70B
:10479000028C22F002020A43028493E7028C22F088
:1047A00008020A4302848DE7028C4FF6FF7322F061
:1047B000200203EA01111143018483E7028C4FF6C2
:1047C000FF7322F0800203EA01111143018479E7AB
:1047D000028C4FF6FF7322F4007203EA01211143A9
:1047E00001846FE7028C4FF6FF7322F4006203EA44
:1047F00001211143018465E7028C4FF6FF7322F417
:10480000005203EA0131114301845BE710B5012333
:10481000048C8B409C430484038C8A4013430384A0
:1048200010BD10B50423048C8B409C430484038C7E
:104830008A401343038410BD30B50124058C00F178
:1048400018038C40A543058489B108290FD0091F9E
:10485000C1F34E001844016821F4E0410160016891
:104860004FF6FF7303EA02221143016030BD03EBF0
:104870005100016821F0700101600168F4E700292E
:10488000018802D041F0020101E021F00201018023
:1048900018E70029018802D041F0040101E021F06D
:1048A000040101800EE70029818802D041F08001D7
:1048B00001E021F08001818004E7028822F00802F3
:1048C000028002880A430280FCE6828822F070029D
:1048D000828082880A438280F4E6028922F00702FD
:1048E000028102890A430281ECE6028922F08002F9
:1048F000028102890A430281E4E68184E2E681853D
:10490000E0E68186DEE60187DCE68187DAE6A0F86C
:104910004010D7E6028822F44072028002880A43DF
:104920000280CFE6808ECDE6008FCBE6808FC9E691
:10493000B0F84000C6E6808CC4E6008DC2E60246B0
:104940000020128A0A4200D00120BBE6C94301823E
:10495000B8E602460020138A92890B4202EA01025D
:1049600002D0002A00D00120ACE6C9430182A9E6AA
:10497000A0F14101192900D82030704740EA010315
:104980009B0703D009E008C9121F08C0042AFAD205
:1049900003E011F8013B00F8013B521EF9D27047C9
:1049A000D2B201E000F8012B491EFBD27047002271
:1049B000F6E710B513460A4604461946FFF7F0FF1E
:1049C000204610BD421E12F8013F002BFBD111F80A
:1049D000013B02F8013B002BF9D1704730B5054689
:1049E0002A460B4612F8010B13F8014B08B1A042FE
:1049F000F8D01CB1002802D06D1CF1E7284630BD6C
:104A0000CAB2401E10F8011F8A4202D00029F9D113
:104A100000207047421C10F8011B0029FBD1801AAE
:104A20007047034611F8012B00F8012B002AF9D139
:104A30001846704730B505460020034600E05B1C71
:104A4000934205D2EC5CC85C201A01D1002CF6D14F
:104A500030BD80EA010210B502F00043400022D0D0
:104A60004A001FD0010E01EB1261C0F35600C2F3E1
:104A7000560240F4000042F40002A0FB02200004B1
:104A80007F39140400D0401C50EA124001D4400089
:104A9000491EC2B20C0604EBD010401C4008802A0C
:104AA00002D003E0002010BD20F00100002900DA50
:104AB0000020184310BD2DE9FE4F804681EA030017
:104AC000C00F0C46009021F0004123F00045B8EBE8
:104AD0000200A94105D24046214690461C460B469D
:104AE000024623F00040104347D0270DC7F30A00C9
:104AF000C3F30A510290401A019040286BDAC3F3C5
:104B0000130040F4801B0098924620B10023D2EBA2
:104B1000030A63EB0B0B01985946C0F14002504663
:104B200000F0B1F906460D4650465946019A00F08C
:104B3000C9F910EB08006141002487EA115284EAA8
:104B4000E7731A4340D0009A62B3019A012A4FEAF0
:104B5000075215DC001B61EB02014FF0004202EA34
:104B60000752CDE90042001C41F5801132462B4628
:104B700000F0C9F903B0BDE8F08F40462146F9E7DF
:104B8000001B61EB0201001C41F5801300185B4122
:104B90002018A2F5001747EB030140EAD570B619BB
:104BA0006D4111E06D084FEA360645EAC0754FEADF
:104BB0000752001B61EB0201001C41F580114908FE
:104BC0004FEA30000019514132462B4603B0BDE890
:104BD000F04F00F089B90098012240000023D0EB8B
:104BE000020263EBE073009821464FEAE074B8EBF1
:104BF000000061EB0401E9E783F000435BE781F02B
:104C0000004158E72DE9FE4F81EA030404F0004417
:104C100021F0004100944FF0000B23F0004350EAD4
:104C200001045ED052EA03045BD0C3F30A54C1F31B
:104C30000A552C44A4F2F3340194A0FB0254C1F3AE
:104C4000130141F48011C3F3130343F4801301FBF8
:104C5000024400FB034E840A970A44EA815447EA5F
:104C60008357A4FB076802958D0A05FB07854FEA69
:104C7000932C04FB0C542705029D4FEA065847EA83
:104C80001637B5EB08056EEB070C870E920E47EA58
:104C9000811742EA8312A7FB0201B6EB0B0164EB1A
:104CA00000042B0D43EA0C335E1844EB1C50DA462B
:104CB0005146E7FB0201C5F313044FEA0B3343EA05
:104CC00014534FEA0432019C43EA0603A4F10C0496
:104CD0000294009CCDE900B400F015F903B0BDE8E2
:104CE000F08F00200146F9E70EB5C10F80EAE070B1
:104CF0000844CA07002140F233438DE80E000A46FB
:104D00000B4600F000F903B000BD20F00040C10DDB
:104D1000C0F3160040F400007F2901DA002070473C
:104D2000962903DCC1F19601C84070479639884046
:104D3000704770B5C1F30A5201F000450024C1F379
:104D4000130140F2FF3341F480119A4201DA00204E
:104D500070BD40F233439A42A2F2334203DC524226
:104D600000F0A0F800E090402C43F1D0404270BD2C
:104D700000F0004230F000400AD0C10D01F5607132
:104D8000C0F3160042EA0151C208400711437047C0
:104D9000002001467047000030B5041E71F1000488
:104DA00004DB4FF00044404264EB0101141E73F138
:104DB000000405DB1C464FF00043524263EB040342
:104DC0008B4208BF824230BD30B5041E71F1000431
:104DD00004DB4FF00044404264EB0101141E73F108
:104DE000000405DB1C464FF00043524263EB040312
:104DF000994208BF904230BD30B50B4601460020B5
:104E00002022012409E021FA02F59D4205D303FA8C
:104E100002F5491B04FA02F52844151EA2F101020D
:104E2000F1DC30BD2DE9F05F0546002092469B463F
:104E300088460646814640241BE0284641464746B0
:104E4000224600F02FF853465A46C01A914110D31B
:104E500011461846224600F016F82D1A67EB010895
:104E60004F4622460120002100F00DF817EB000903
:104E70004E41201EA4F10104DFDC484631462A469B
:104E80004346BDE8F09F202A04DB203A00FA02F1F5
:104E9000002070479140C2F1200320FA03F3194328
:104EA00090407047202A04DB203A21FA02F00021CA
:104EB000704721FA02F3D040C2F12002914008432A
:104EC00019467047202A06DBCB17203A41FA02F038
:104ED00043EAE07306E041FA02F3D040C2F1200257
:104EE000914008431946704710B5141E73F1000431
:104EF00008DA401C41F1000192185B411A4301D1CC
:104F000020F0010010BD2DE9F04D92469B4611B1F5
:104F1000B1FA81F202E0B0FA80F220329046FFF757
:104F2000B2FF04460F4640EA0A0041EA0B0153462D
:104F30005A46084313D0114653EA010019D0C8F16C
:104F400040025046FFF7AEFF05460E465046594612
:104F50004246FFF798FF084305D0012004E02046B1
:104F60003946BDE8F08D0020054346EAE0762C4343
:104F700037430A986305E40AA0EB08000022FD0A03
:104F800044EA47540A3002D500200146E9E701050A
:104F900010196941DDE9084500196941BDE8F04D86
:104FA000A2E72DE9F04D81EA030404F0004B21F063
:104FB000004514464FF0000A23F0004150EA050274
:104FC00020D054EA01021DD0C5F30A570246C5F3AA
:104FD0001303C1F31300C1F30A5640F4801543F4E0
:104FE0008013A7EB0608101BD64608F2FD3873EBBA
:104FF000050002D308F1010801E092185B41B8F105
:10500000000F03DA00200146BDE8F08D00204FF4C8
:105010008011064684460EE0171B73EB050705D387
:10502000121B63EB050306434CEA010C49084FEAE7
:10503000300092185B4150EA0107EDD152EA0300BB
:1050400012D082EA040083EA0501084305D0101B50
:10505000AB4106D20122002306E000224FF00043BC
:1050600002E06FF0010253101AEB06004CEB0851FE
:1050700010EB0A0041EB0B01BDE8F04DFFF734BF28
:1050800070B521F0004303430CD0C1F30A5500244E
:10509000D5EB040564EB0403D617AD1AB34102DB6C
:1050A0000020014670BD201841EB025170BDC1F3D4
:1050B0000A52C1F3130140F2FF3341F480119A42C6
:1050C00002DA00200146704740F233439A42A2F2CE
:1050D000334202DC5242FFF7E5BEFFF7D4BE0000C8
:1050E000064C074D06E0E06840F0010394E8070035
:1050F00098471034AC42F6D3FBF71EF8C4AA000858
:10510000E4AA00082DE9F04D00231A461B1A8A4133
:1051100003DB00200146BDE8F08DC1F30A52C1F364
:10512000130141F480154FF0000BD10702D1001894
:105130006D41521E0027044640F2FF11384601EB34
:10514000620A3E468046024600204FF48011FFF777
:10515000A9FEC2197141BB1846EB0100B4EB030C68
:1051600075EB000C04D3E41A65EB000517460E46F8
:10517000241908F101006D4180463428E3DDF91956
:1051800046EB0600091BA84103D24FF0FF3213463D
:1051900001E0002213461BEB070046EB0A51BDE875
:1051A000F04DFFF7A1BE00000FB4084B10B504A9E5
:1051B00002AA039800F06EF9044602A9002000F04C
:1051C00000FD204610BC5DF814FB0000C35B000826
:1051D000490050EAC12018BF04204A0D18BF40F012
:1051E000010040F2FF72B2EB515F08BF40F00200D5
:1051F000012808BF052070472DE9F0414F1E00EB44
:10520000C7010446D1E9000115461E4637F00602E3
:105210000DD02A463346FFF7F5FC7F1E04EBC7038B
:10522000D3E90023FFF747FC37F00602F1D1022F44
:1052300025D0042F13D0062F18BFBDE8F0812A46D1
:105240003346FFF7DFFCD4E90A23FFF734FC2A4694
:105250003346FFF7D7FCD4E90823FFF72CFC2A4696
:105260003346FFF7CFFCD4E90623FFF724FC2A4698
:105270003346FFF7C7FCD4E90423FFF71CFC2A469A
:105280003346FFF7BFFCD4E90223FFF714FC2A469C
:105290003346FFF7B7FCD4E90023BDE8F041FFF740
:1052A0000ABC00000022134610460149FFF779BEF0
:1052B0000000F03FFFF7FFBB0022134610461146E7
:1052C000FFF76FBE40F2013200204FF0E041FFF7E0
:1052D000D7BE0000024A00201107FFF7D1BE000030
:1052E00001FDFFFF02E008C8121F08C1002AFAD121
:1052F00070477047002001E001C1121F002AFBD156
:105300007047000001490860704700005C00002001
:105310002DE9FF5F82B00021DDE90430020DDDF8E8
:1053200040B0034318D044F61050A2F2FF3242437B
:105330001514119801281FD0A5EB0B00401C5FEA43
:10534000000A4FF000064E4FDFF83891B046504645
:1053500015D5CAF1000413E0119801244AA30128CD
:1053600001D16FEA0B010298119AC0E90031C0E93E
:10537000024206B0BDE8F09FCBF10000DFE7044633
:105380000021404A491842EB0450CDE9001012E0D8
:10539000E00707D032463B4640464946FFF732FC1D
:1053A0008046894632463B4610461946FFF72AFC9E
:1053B00006460F466410002CEAD1DDE90401DDE960
:1053C0000023BAF1000F06DAFFF71CFC42464B46F9
:1053D000FFF718FC05E0FFF7E4FD42464B46FFF7F8
:1053E000E0FD04460E460022284BFFF7EDFC03D8F3
:1053F0004FF0FF30014607E00022254B20463146A2
:10540000FFF759FBFFF753FE102409E0002C0ADBDD
:105410000A220023FFF706FD039B30321A55641E53
:1054200050EA0102F2D1641C039AC4F1110314443E
:10543000119A012A03D0012208430DD10AE0084342
:1054400004D000204FF0110B119072E7A3EB0B0575
:105450006D1E0DE05B4504DD4FF0000205F1010516
:1054600004E003DA4FF00002A5F10105002AECD0B8
:1054700002981199C0E90231C0E9004579E70000BE
:10548000000014400000F03F300000000000F04336
:105490000000E03F2DE9FF4F95B09B468946064648
:1054A00000250FE2252877D100242746F84A01215C
:1054B000059400E0044316F8013F203B01FA03F095
:1054C0001042F7D130782A2811D06FF02F033078AE
:1054D000A0F13002092A16D8059A44F0020402EB22
:1054E000820203EB42021044761C0590EFE759F864
:1054F000042B0592002A03DA504244F4005405902C
:1055000044F00204761C30782E2816D116F8010FCC
:1055100044F004042A280DD06FF02F023078A0F157
:105520003003092B09D807EB870302EB4303C718A5
:10553000761CF3E759F8047B761C30786C280FD082
:1055400006DC4C2817D068280DD06A2814D104E056
:10555000742810D07A280FD10DE044F400140AE02A
:1055600044F4801401E044F440147278824202D181
:1055700004F58014761C761C307866280BD013DC7A
:10558000582877D009DC002875D04528F6D0462861
:10559000F4D047281AD19DE118E0632835D064285B
:1055A00079D0652812D195E1702873D008DC67287E
:1055B000F1D069286FD06E280DD06F2806D1B5E0E4
:1055C00073282CD0752875D0782874D05A4617992E
:1055D00090476D1C75E1C4F30250022809D00328DE
:1055E0000DD0D9F8001004280DD00D6009F1040980
:1055F00067E1D9F80010EA17C1E90052F6E7D9F8D7
:1056000000100D80F2E70D70F0E719F8041B8DF81B
:10561000001000208DF80100EA46012003E059F84F
:1056200004AB4FF0FF3061074FF0000102D40DE0F2
:1056300008F101018846B9420FDA8045F8DB1AF813
:1056400008100029F4D108E008F1010188468142E0
:10565000FADB1AF808100029F6D105985B46A0EB92
:10566000080721463846179A00F094FA284400EBC0
:10567000080507E04DE029E10DE01AF8010B5A4654
:1056800017999047B8F10108F7D25B462146384692
:10569000179A13E142E00A220092C4F302524FF03B
:1056A000000A022A08D059F804CB032A4FEAEC7109
:1056B0000AD00DE029E02AE009F1070121F00702F4
:1056C000F2E802C1914609E00FFA8CFC4FEAEC7156
:1056D000042A03D14FFA8CFC4FEAEC71002907DA57
:1056E0000A460021DCF1000C61EB02012D2202E0F0
:1056F000220504D52B228DF80420012203E0E207C5
:1057000001D02022F7E7904659E00A2102E010225A
:105710000DE010214FF0000A00910BE010224FF035
:10572000000A44F004040827009203E008224FF026
:10573000000A0092C4F30252022A05D059F804CBA1
:105740000021032A08D009E009F1070121F007022E
:10575000F2E802C1914605E01FFA8CFC042A01D14F
:105760000CF0FF0C4FF00008220728D5702806D057
:10577000009B83F0100353EA0A0305D00EE0402299
:105780008DF80420012208E05CEA010206D03022F4
:105790008DF804208DF8050002229046009B83F0CE
:1057A000080353EA0A030AD15CEA010201D1620745
:1057B00005D530228DF804204FF001087F1E5828AF
:1057C00004D034A003900EA802900DE036A0F9E7B3
:1057D00053466046009AFFF725FB84460398825C97
:1057E0000298401E029002705CEA0100F0D102981B
:1057F00006A9081A00F1200A600702D524F48034B3
:1058000000E00127574502DDA7EB0A0000E0002079
:1058100000EB0A01009005984144401A0590E0030E
:1058200006D45B462146179A059800F0B3F9054463
:10583000002706E001A85A46C05D179990476D1CE5
:105840007F1C4745F6DBE0030CD55B462146179AE3
:10585000059800F09FF9054404E030205A46179956
:1058600090476D1C0099481E00900029F5DC08E067
:10587000029802995A460078491C0291179990475C
:105880006D1CBAF10001AAF1010AF1DC65E100002A
:105890000928010030313233343536373839616206
:1058A00063646566000000003031323334353637CA
:1058B00038394142434445460000000000F058F9A1
:1058C0000544761C307800287FF4ECAD19B02846EA
:1058D000BDE8F08F620700D4062709F1070222F025
:1058E000070CFCE80223E14603F000485FEA080CDD
:1058F00002D00FF2702C0DE05FEA045C02D50FF2CB
:10590000682C07E05FEAC47C02D00FF2602C01E053
:10591000AFF2700C4FF0FF3823F00043CDF850C0C9
:1059200065280CD006DC452809D046281DD047281C
:105930003DD13DE0662818D067287ED138E00021AF
:10594000112F01DB112000E0781CCDE9000106A930
:105950000EA8FFF7DDFCDDE90F010E9A039100218F
:10596000009207F1010A04914DE04FF000400097CA
:10597000CDE9011006A90EA8FFF7CAFCDDE90F0268
:1059800003920E9B11990022DDF80CA00093049263
:1059900011B9791C00EB010AB7EB0A0004D4C0F17D
:1059A000FF3007F1010A0490AAEB0700019044E0E0
:1059B000012F00DA01270021112F01DD112000E065
:1059C0003846CDE9000106A90EA8FFF7A1FCDDE9E4
:1059D0000F010E9A0391002104910092BA4621070B
:1059E0000CD40399514500DA8A46BAF1010F05DD5E
:1059F000009AAAF10101515C302908D0B84202DABC
:105A000010F1040F06DA0121CDE9011015E0AAF129
:105A10000101E9E7002805DC049901440491AAEB9F
:105A2000000102E0411C514500DD8A460499401AFC
:105A3000401C01904FF000400290200704D40198D0
:105A4000504501DBCDF8048000208DF84F0002980E
:105A50000DF14F07B0F1004F25D02B200E9002988A
:105A60004FF0020800280CDA404202902D200E90E0
:105A700007E00A210298FFF7BFF93031029007F8DA
:105A8000011DB8F10001A8F10108F2DC029800281C
:105A9000EFD1791E0E980870307800F0200040F0A9
:105AA000450007F8020D12A8C01B00F10708149862
:105AB000007800B1012000EB0A01019801EBE071D0
:105AC00005984144401A401E0590E00306D45B4609
:105AD0002146179A059800F05DF80544149800785F
